:100000000C948E5C0C94B5620C94AF5C0C94AF5C59
:100010000C94AF5C0C94CE620C94E7620C94006379
:100020000C9419630C94AF5C0C94AF5C0C94AF5CB3
:100030000C94AF5C0C94AF5C0C94AF5C0C94AF5C14
:100040000C94AF5C0C94AF5C0C9484630C94AF5C28
:100050000C943A660C94AF5C0C94AF5C0C9498666C
:100060000C94AF5C0C9424680C94AF5C0C94AF5C63
:100070000C94AF5C0C94AF5C0C94AF5C0C94AF5CD4
:100080000C94AF5C0C94AF5C0C94AF5C0C94AF5CC4
:100090000C94FC7A0C94AF5C0C94AF5C0C94AF5C49
:1000A0000C94AF5C0C94AF5C0C94AF5C0C94AF5CA4
:1000B0000C94AF5C0C94AF5C0C94AF5C0C94AF5C94
:1000C0000C94AF5C0C94AF5C0C94AF5CA079A279FB
:1000D000AA79A479B479A879A679AA79B479B479F6
:1000E000AE79B079AC79B2790C94A37A0C94AE79EC
:1000F0000C94C97B0C94AC790C94B0790C94AA79CB
:100100000C94A6790C94B2790C94A4790C94A079EF
:100110000C94B4790C94A8790C94A27921204F33D3
:100120002054343020662E622E662E622E662E6299
:100130002E662E622E00050505050505050505053B
:1001400005050505050505050000010A200700A2B3
:10015000D83A31720E80FBD19459AAAA0A81877AC3
:10016000183C04DA0F5E76BA126A00FA4F62FCF1AC
:100170005458A8B9D2801B02DA2F03E20F7902F398
:100180004E88F649503FFCF154587F01D4801C83BF
:10019000DC1B03E2CF3802638BA2F649503FFCF12F
:1001A0005458A2E9D2801C83DC2503E2CF380842F0
:1001B000D935F649D07DFCF15458A7C1D2801C43F3
:1001C0005B2D03E24F3B5181DA2B0E8A8FABFCF1A2
:1001D00054588D92CB80B8525A2D03E2CF5117A1BB
:1001E000D83A31720EBAFBD19459AAAA0A81877AF9
:1001F000183C04DA0F5E00000000C8000000000098
:1002000000000000F001F001F001F001E803E80354
:10021000E8030505050505050505050505050505AD
:10022000050505050000010F2006FDA9983A317269
:100230008E80FCF15458A5D2CA80692A974603E201
:100240008F65F0B1545A0AAACF83FCF15458A5D255
:10025000CA80692A974603E28F6544E2CC9864DB42
:10026000C46EF2F15458C8BB418343335C1E07C2CD
:100270000F2F08A993623932CEBD00EA9458AF839C
:10028000C27FC1CA9E09FF01904F08A9936239320B
:10029000CEBD00EA94585F03C57FC1CA9E09FF0125
:1002A000904F17A1D83A31720EBAFBD19459AAAA2D
:1002B0000A81877A183C04DA0F5E00000000000013
:1002C000300198000000C800C800E803E8032003DC
:1002D000D007050505050505050505050505050501
:1002E0000505050500000105200117A1D83A317266
:1002F0000EBAFBD19459AAAA0A81877A183C04DA6B
:100300000F5E0000E803070705050505050505055F
:100310000505050506060606E000010A050117A108
:10032000D83A31720EBAFBD19459AAAA0A81877AB7
:10033000183C04DA0F5E0000F0000707050505050C
:10034000050505050505050504040404000001155F
:10035000050717A1D83A31720EBAD4D194599D3AF3
:100360000A8295AA1735EAF94E6117A1D83A317277
:100370000EBADFD194599FC28A7D84CA573DEC11D1
:10038000CF6017A1D83A31720EBAE6D19459A2FAC9
:10039000CA7B7DFA1741EF310F6017A1D83A31724D
:1003A0000EBAEAD19459A5E2CA7C802A583FF3518B
:1003B0004F5F17A1D83A31720EBAEFD19459A7CA3C
:1003C0000A7E8352D83DF879CF5E17A1D83A3172B0
:1003D0000EBAF5D19459A9B28A7F8672983CFEA9CB
:1003E0004F5E17A1D83A31720EBAFBD19459AAAA1E
:1003F0000A81877A183C04DA0F5E000000000000D2
:1004000000000000000000005000500050005000AC
:1004100050005000500007070505050505050505B6
:100420000505050504040404DFDF01150507177938
:10043000962931720EBAF5D1945995AA897F5D4AF1
:10044000983FFEA94F591789162A31720EBAEFD17B
:10045000945999A2097E543AD841F879CF5A17A9EC
:10046000162B31720EBAEAD194599AB2C97C4D1A40
:100470001844F3510F5C17E9162D31720EBAE6D10C
:10048000945997DAC97B4AE2D745EF31CF5C1741DF
:10049000D72F31720EBADDD1945996B2097E59C266
:1004A0001741EE018F5D17A9173331720EBACBD108
:1004B00094599B9209847BBA9737F2B10E5F171952
:1004C000983631720EBABCD19459A30ACA8896C222
:1004D0005734FB510E6100000000000000000000D6
:1004E000000000005000500050005000500050002C
:1004F0005000070705050505050505050505050562
:100500000404040400000115050717A1D83A31724C
:100510000EBAF7D19459B812CB8A7A5A994220AAC6
:10052000905A17A1D83A31720EBA09D29459A7023B
:100530000B887C5298411D9AD05E17A1D83A31722F
:100540000EBA10D29459A0EA4A867FDA174019826F
:10055000906017A1D83A31720EBA0CD29459A3D236
:100560004A858212983E1562D05F17A1D83A31723F
:100570000EBA07D29459A6C20A848442583D103A52
:10058000105F17A1D83A31720EBA01D29459A9B2AC
:100590008A82866A583C0A0A505E17A1D83A31729C
:1005A0000EBAFBD19459AAAA0A81877A183C04DAB8
:1005B0000F5E0000000000000000000000000000CE
:1005C00050005000500050005000500050000707ED
:1005D00005050505050505050505050504040404CF
:1005E000DDDD0115050717C1DA4B31720EBADDD119
:1005F0009459BF7A4B8B946297402DEA0E6B17B1DA
:100600005A4B31720EBAE3D19459BC4ACB8C91F259
:10061000D63F331ACF6D17915A4A31720EBAE8D1CC
:100620009459B73ACB8D8D72164037424F7017519F
:100630005A4831720EBAEDD19459AF42CB8E8C0A22
:10064000D6403B6ACF7117F9994531720EBAE8D19D
:100650009459B7420B9089DA96413D920F6D1791EC
:10066000594231720EBADDD19459C51A8B91848AE0
:1006700098413BDA0F631721D93E31720EBADCD1B3
:100680009459BEE2CA907B72D9413522505A00007B
:1006900000000000000000000000000050005000BA
:1006A0005000500050005000500007070505050598
:1006B000050505050505050504040404D8DC011B32
:1006C00005071701D83531720EBAB9D19459A7BAB6
:1006D0004A89A0D2573701328E6117799839317221
:1006E0000EBABBD19459AB7A8B88A0E2573D082251
:1006F000CE6117F9983D31720EBAC1D19459B02A22
:100700004C879BF257440F2A8E6217691941317248
:100710000EBAC7D19459B4924C8694021849164225
:100720004E6317D9994431720EBACCD19459B97A23
:100730000C87940258481C624E6417315A47317234
:100740000EBAD2D19459BC228C8897EAD74422920F
:10075000CE6517799A4931720EBAD8D19459BFCA69
:10076000CB8997BA174227C24E68000000000000EC
:100770000000000000000000500050005000500039
:100780005000500050000707050505050505050543
:100790000505050504040404DBDB011B05071791AF
:1007A000562A31720EBAF5D1945995AA897F5D4ABD
:1007B000983FFEA94F591779962931720EBAEFD199
:1007C000945999A2097E543AD841F879CF5A1781A1
:1007D000D62931720EBAE8D194599C9A097E531ADF
:1007E000D841F4494F5C17A1D62A31720EBADDD137
:1007F00094599E7209805EFAD73DF211CF5D17E1E0
:10080000D62C31720EBAD0D194599F6A498370DACE
:10081000D738F3D14E5F1731572F31720EBAC5D189
:100820009459A192898685CA1735F6894E60179129
:10083000573231720EBABCD19459A30ACA8896C2F3
:100840005734FB510E610000000000000000000062
:1008500000000000500050005000500050005000B8
:1008600050000707050505050505050505050505EE
:1008700004040404DADA011B05071739993F3172C1
:100880000EBAE5D19459ADCA8A8E795A99412E4A49
:10089000905617C1D83B31720EBAF2D1945998AA2A
:1008A000CA8B77E21841256250551741D83731720B
:1008B0000EBAFFD19459867A8A88764218401D6A0A
:1008C000905517D1573431720EBA07D294597B4ADA
:1008D000CA8574C2173F165AD0561761D730317285
:1008E0000EBA07D294597C1A0A8471C2173E103A84
:1008F00010571709172E31720EBA01D2945985EA92
:1009000089826D0A983D0A0A505717C1D62B317259
:100910000EBAFBD194598EC20981663A183E04DAA8
:100920000F58000000000000000000000000000060
:100930005000500050005000500050005000070779
:10094000050505050505050505050505040404045B
:10095000D9D9011B050717A91A4B31720EBADDD17F
:100960009459BF7A4B8B946297402DEA0E6B17C156
:10097000DA4B31720EBAE3D19459BC4ACB8C91F266
:10098000D63F331ACF6D17B99A4B31720EBAE6D1F2
:100990009459BC2A0B8E8CDAD63F374A8F6E179942
:1009A0009A4A31720EBAE2D19459C3128B8F88726F
:1009B00057403A824F6B17599A4831720EBADDD1BF
:1009C0009459C8FA0A918352D8403BBACF651709A7
:1009D0001A4631720EBADAD19459C8F28A917F124E
:1009E000594139F2CF5F17A9194331720EBADCD1E0
:1009F0009459BEE2CA907B72D9413522505A000008
:100A00000000000000000000000000005000500046
:100A10005000500050005000500007070505050524
:100A2000050505050505050504040404D8DC0115C4
:100A300005071791583A31720EBAB9D19459AC22C0
:100A40008B889DCA973B0422CE621709193E3172EA
:100A50000EBABFD19459B162CC858FCA17490D1215
:100A60000E641781D94131720EBAC4D19459B4FAC7
:100A70008C8487E2974F12220E6417E91945317270
:100A80000EBAC8D19459B5CACC858FFA574C1742C3
:100A9000CE631741DA4731720EBACCD19459B97A84
:100AA0000C87940258481C624E641781DA493172EF
:100AB0000EBAD2D19459BC228C8897EAD74422929C
:100AC000CE6517B15A4B31720EBAD8D19459BFCAFC
:100AD000CB8997BA174227C24E6800000000000079
:100AE00000000000000000005000500050005000C6
:100AF00050005000500007070505050505050505D0
:100B00000505050504040404D7D70115050717A139
:100B1000D83A31720EBAF5D19459A9B28A7F867249
:100B2000983CFEA94F5E17A1D83A31720EBAEFD1A8
:100B30009459A7CA0A7E8352D83DF879CF5E17A18F
:100B4000D83A31720EBAEAD19459A5E2CA7C802A09
:100B5000583FF3514F5F17A1D83A31720EBAE6D120
:100B60009459A2FACA7B7DFA1741EF310F6017A1A1
:100B7000D83A31720EBADFD194599FC28A7D84CAA5
:100B8000573DEC11CF6017A1D83A31720EBAD4D1CB
:100B900094599D3A0A8295AA1735EAF94E6117A130
:100BA000D83A31720EBACFD194599C024A849C9A99
:100BB0005731E9E98E6100000000000000000000EC
:100BC0000000000050005000500050005000500045
:100BD000500007070505050505050505050505057B
:100BE00004040404DADA0115050717A9183B317269
:100BF0000EBAEFD19459A3A20A8D730A1942296A39
:100C000090561731583731720EBA07D29459817203
:100C10008A886EDAD7411F8A905717B99733317295
:100C20000EBA10D29459725A4A866F42D74019822E
:100C3000D0581751573031720EBA0CD294597542B0
:100C40004A85727A173F1562905717F9962D3172BF
:100C50000EBA07D294597C1A0A8471C2173E103A10
:100C6000105717B9962B31720EBA01D2945985EAF2
:100C700089826D0A983D0A0A50571789162A3172DF
:100C80000EBAFBD194598EC20981663A183E04DA35
:100C90000F580000000000000000000000000000ED
:100CA0005000500050005000500050005000070706
:100CB00005050505050505050505050504040404E8
:100CC000D5D50115050717A1D83A31720EBA01D250
:100CD0009459A9B28A82866A583C0A0A505E17A1C2
:100CE000D83A31720EBA07D29459A6C20A84844205
:100CF000583D103A105F17A1D83A31720EBA0CD293
:100D00009459A3D24A858212983E1562D05F17A1EA
:100D1000D83A31720EBA10D29459A0EA4A867FDAD4
:100D200017401982906017A1D83A31720EBA09D2D1
:100D30009459A7020B887C5298411D9AD05E17A146
:100D4000D83A31720EBAF7D19459B812CB8A7A5A7E
:100D5000994220AA905A17A1D83A31720EBAEED110
:100D60009459BF1A0B8C79D2194322B2D058000083
:100D700000000000000000000000000050005000D3
:100D800050005000500050005000070705050505B1
:100D90000505050505050505040404040000011505
:100DA000050717A1D83A31720EBAD4D194599D3A99
:100DB0000A8295AA1735EAF94E6117A1D83A31721D
:100DC0000EBADFD194599FC28A7D84CA573DEC1177
:100DD000CF6017A1D83A31720EBAE6D19459A2FA6F
:100DE000CA7B7DFA1741EF310F6017A1D83A3172F3
:100DF0000EBAEAD19459A5E2CA7C802A583FF35131
:100E00004F5F17A1D83A31720EBAEFD19459A7CAE1
:100E10000A7E8352D83DF879CF5E17A1D83A317255
:100E20000EBAF5D19459A9B28A7F8672983CFEA970
:100E30004F5E17A1D83A31720EBAFBD19459AAAAC3
:100E40000A81877A183C04DA0F5E00000000000077
:100E50000000000000000000500050005000500052
:100E6000500050005000070705050505050505055C
:100E70000505050504040404D3D3011505071779F6
:100E8000962931720EBAD2D1945990028A8853EAC7
:100E9000D7442292CE5A1789162A31720EBACCD173
:100EA0009459961A0A87480258481C628E5B17A903
:100EB000162B31720EBAC8D194599842CA853EFA9F
:100EC000574C17428E5C17E9162D31720EBAC4D1F9
:100ED000945997828A8438E2974F1222CE5C174148
:100EE000D72F31720EBABFD194599742CA854BCAD7
:100EF00017490D128E5D17A9173331720EBAB9D189
:100F000094599CD2898873CA973B0422CE5E1719E4
:100F1000983631720EBABCD19459A30ACA8896C2C7
:100F20005734FB510E61000000000000000000007B
:100F300000000000500050005000500050005000D1
:100F40005000070705050505050505050505050507
:100F50000404040400000115050717A1D83A3172F2
:100F60000EBAF7D19459B812CB8A7A5A994220AA6C
:100F7000905A17A1D83A31720EBA09D29459A702E1
:100F80000B887C5298411D9AD05E17A1D83A3172D5
:100F90000EBA10D29459A0EA4A867FDA1740198215
:100FA000906017A1D83A31720EBA0CD29459A3D2DC
:100FB0004A858212983E1562D05F17A1D83A3172E5
:100FC0000EBA07D29459A6C20A848442583D103AF8
:100FD000105F17A1D83A31720EBA01D29459A9B252
:100FE0008A82866A583C0A0A505E17A1D83A317242
:100FF0000EBAFBD19459AAAA0A81877A183C04DA5E
:101000000F5E000000000000000000000000000073
:101010005000500050005000500050005000070792
:101020000505050505050505050505050404040474
:10103000D1D10115050717C1DA4B31720EBA01D2B1
:101040009459CA528B829A0A983D0A0A906817B13D
:101050005A4B31720EBA07D29459CB320B8494C2D8
:10106000173E103AD06A17915A4A31720EBA0CD212
:101070009459C92A4B858F7A173F1562906C175186
:101080005A4831720EBA10D29459C4424B868C42DF
:10109000D7401982506D17F9994531720EBA07D2AF
:1010A0009459C94A8B8889DAD7411F8A9069179168
:1010B000594231720EBAEFD19459CD220B8D830A69
:1010C0001942296A10611721D93E31720EBADCD15A
:1010D0009459BEE2CA907B72D9413522505A000021
:1010E0000000000000000000000000005000500060
:1010F000500050005000500050000707050505053E
:10110000050505050505050504040404CCCC011BF3
:1011100005071701D83531720EBAC5D19459A69278
:101120008A86A5CA1735F6898E6117799839317282
:101130000EBAD0D19459AA3A4B83AADAD738F3D150
:101140000E6217F9983D31720EBADDD19459B0CACA
:101150000B80A9FAD73DF2114F621769194131721C
:101160000EBAE8D19459B6220C7EA41AD841F4499B
:10117000CF6217D9994431720EBAEFD19459BC1A83
:101180000C7EA33AD841F8798F6317315A473172F0
:101190000EBAF5D19459C2D28B7FA24A983FFEA9CC
:1011A0008F6417799A4931720EBAFBD19459C78A64
:1011B0000B819F3A183E04DA4F66000000000000E1
:1011C00000000000000000005000500050005000DF
:1011D00050005000500007070505050505050505E9
:1011E0000505050504040404CFCF011B050717916D
:1011F000562A31720EBAD2D1945990028A8853EA93
:10120000D7442292CE5A1779962931720EBACCD190
:101210009459961A0A87480258481C628E5B1781B7
:10122000D62931720EBAC7D194599A1A4A86450204
:1012300018491642CE5C17A1D62A31720EBAC1D116
:1012400094599DE2498752F257440F2ACE5D17E127
:10125000D62C31720EBABBD19459A0BA898868E2F3
:10126000573D08220E5F1731572F31720EBAB9D190
:101270009459A1BA498980D2573701320E6017912B
:10128000573231720EBABCD19459A30ACA8896C299
:101290005734FB510E610000000000000000000008
:1012A000000000005000500050005000500050005E
:1012B0005000070705050505050505050505050594
:1012C00004040404CED2011B05071739993F31727B
:1012D0000EBADAD19459A8C28A917912594139F2D9
:1012E000CF5717C1D83B31720EBADDD1945990A2B5
:1012F0000A917852D8403BBACF571741D83731724C
:101300000EBAE2D194597A7A8A8F757257403A822E
:101310000F5917D1573431720EBAE6D194596D5A1C
:101320000A8E72DAD63F374ACF5A1761D7303172F8
:101330000EBAE3D194597032CA8C6EF2D63F331A8A
:10134000CF5A1709172E31720EBADDD194597B1A74
:101350004A8B686297402DEA0E5A17C1D62B31721C
:101360000EBAD8D194598602CA895EBA174227C2EA
:101370000E5A000000000000000000000000000005
:10138000500050005000500050005000500007071F
:101390000505050505050505050505050404040401
:1013A000CDCD011B050717A91A4B31720EBA01D218
:1013B0009459CA528B829A0A983D0A0A906817C1BA
:1013C000DA4B31720EBA07D29459CB320B8494C2E5
:1013D000173E103AD06A17B99A4B31720EBA07D23B
:1013E0009459CC1ACB858EC2173F165A106B179999
:1013F0009A4A31720EBAFFD19459D10A8B88884229
:1014000018401D6A506817599A4831720EBAF2D1C5
:101410009459D202CB8B82E218412562D06317091E
:101420001A4631720EBAE5D19459CDF28A8E7E5A9F
:1014300099412E4A905E17A9194331720EBADCD138
:101440009459BEE2CA907B72D9413522505A0000AD
:1014500000000000000000000000000050005000EC
:1014600050005000500050005000070705050505CA
:10147000050505050505050504040404CCCC011586
:1014800005071791583A31720EBACBD19459ABE295
:101490000A84A5BA9737F2B10E631709193E317263
:1014A0000EBADDD19459B1F20B7EA1C21741EE0103
:1014B0004F641781D94131720EBAE6D19459B46A9A
:1014C000CC7B9CE2D745EF310F6417E919453172A7
:1014D0000EBAEAD19459B752CC7CA11A1844F351F0
:1014E0004F631741DA4731720EBAEFD19459BC1AE3
:1014F0000C7EA33AD841F8798F631781DA493172AB
:101500000EBAF5D19459C2D28B7FA24A983FFEA958
:101510008F6417B15A4B31720EBAFBD19459C78AF6
:101520000B819F3A183E04DA4F660000000000006D
:10153000000000000000000050005000500050006B
:101540005000500050000707050505050505050575
:101550000505050504040404CBCB0115050717A1F7
:10156000D83A31720EBAF5D19459A9B28A7F8672EF
:10157000983CFEA94F5E17A1D83A31720EBAEFD14E
:101580009459A7CA0A7E8352D83DF879CF5E17A135
:10159000D83A31720EBAEAD19459A5E2CA7C802AAF
:1015A000583FF3514F5F17A1D83A31720EBAE6D1C6
:1015B0009459A2FACA7B7DFA1741EF310F6017A147
:1015C000D83A31720EBADFD194599FC28A7D84CA4B
:1015D000573DEC11CF6017A1D83A31720EBAD4D171
:1015E00094599D3A0A8295AA1735EAF94E6117A1D6
:1015F000D83A31720EBACFD194599C024A849C9A3F
:101600005731E9E98E610000000000000000000091
:1016100000000000500050005000500050005000EA
:101620005000070705050505050505050505050520
:1016300004040404CED20115050717A9183B317222
:101640000EBADDD194599B9A8A91748A98413BDAFB
:101650008F581731583731720EBAE8D194597372D6
:101660000A906FDA96413D920F5C17B99733317249
:101670000EBAEDD19459605ACA8E6F0AD6403B6AB1
:101680000F5E1751573031720EBAE8D19459665235
:10169000CA8D7072164037420F5C17F9962D317261
:1016A0000EBAE3D194597032CA8C6EF2D63F331A17
:1016B000CF5A17B9962B31720EBADDD194597B1AD5
:1016C0004A8B686297402DEA0E5A1789162A3172A2
:1016D0000EBAD8D194598602CA895EBA174227C277
:1016E0000E5A000000000000000000000000000092
:1016F00050005000500050005000500050000707AC
:10170000050505050505050505050505040404048D
:10171000C9C90115050717A1D83A31720EBA01D20D
:101720009459A9B28A82866A583C0A0A505E17A167
:10173000D83A31720EBA07D29459A6C20A848442AA
:10174000583D103A105F17A1D83A31720EBA0CD238
:101750009459A3D24A858212983E1562D05F17A190
:10176000D83A31720EBA10D29459A0EA4A867FDA7A
:1017700017401982906017A1D83A31720EBA09D277
:101780009459A7020B887C5298411D9AD05E17A1EC
:10179000D83A31720EBAF7D19459B812CB8A7A5A24
:1017A000994220AA905A17A1D83A31720EBAEED1B6
:1017B0009459BF1A0B8C79D2194322B2D058000029
:1017C0000000000000000000000000005000500079
:1017D0005000500050005000500007070505050557
:1017E00005050505050505050404040400000115AB
:1017F000050717A1D83A31720EBAD4D194599D3A3F
:101800000A8295AA1735EAF94E6117A1D83A3172C2
:101810000EBADFD194599FC28A7D84CA573DEC111C
:10182000CF6017A1D83A31720EBAE6D19459A2FA14
:10183000CA7B7DFA1741EF310F6017A1D83A317298
:101840000EBAEAD19459A5E2CA7C802A583FF351D6
:101850004F5F17A1D83A31720EBAEFD19459A7CA87
:101860000A7E8352D83DF879CF5E17A1D83A3172FB
:101870000EBAF5D19459A9B28A7F8672983CFEA916
:101880004F5E17A1D83A31720EBAFBD19459AAAA69
:101890000A81877A183C04DA0F5E0000000000001D
:1018A00000000000000000005000500050005000F8
:1018B0005000500050000707050505050505050502
:1018C0000505050504040404C7C70115050717C16C
:1018D000DA4B31720EBAF5D19459BDFA8B7FA24A18
:1018E000983FFEA98F6417B15A4B31720EBAEFD1EF
:1018F0009459B7420C7EA33AD841F8798F63179177
:101900005A4A31720EBAEAD19459B27ACC7CA11AF1
:101910001844F3514F6317515A4831720EBAE6D149
:101920009459AF92CC7B9CE2D745EF310F6417F905
:10193000994531720EBADDD19459AC1A0C7EA1C210
:101940001741EE014F641791594231720EBACBD153
:101950009459A60A0B84A5BA9737F2B10E631721E2
:10196000D93E31720EBABCD194599E32CA8896C201
:101970005734FB510E610000000000000000000021
:101980000000000050005000500050005000500077
:1019900050000707050505050505050505050505AD
:1019A0000404040400000115050717A1D83A317298
:1019B0000EBAF7D19459B812CB8A7A5A994220AA12
:1019C000905A17A1D83A31720EBA09D29459A70287
:1019D0000B887C5298411D9AD05E17A1D83A31727B
:1019E0000EBA10D29459A0EA4A867FDA17401982BB
:1019F000906017A1D83A31720EBA0CD29459A3D282
:101A00004A858212983E1562D05F17A1D83A31728A
:101A10000EBA07D29459A6C20A848442583D103A9D
:101A2000105F17A1D83A31720EBA01D29459A9B2F7
:101A30008A82866A583C0A0A505E17A1D83A3172E7
:101A40000EBAFBD19459AAAA0A81877A183C04DA03
:101A50000F5E000000000000000000000000000019
:101A60005000500050005000500050005000070738
:101A7000050505050505050505050505040404041A
:101A8000C5C5011505071779962931720EBADDD142
:101A9000945976424A8B686297402DEA0E5A17890C
:101AA000162A31720EBAE3D194596B5ACA8C6EF26F
:101AB000D63F331ACF5A17A9162B31720EBAE8D176
:101AC0009459617ACA8D7072164037420F5C17E9DB
:101AD000162D31720EBAEDD194595B82CA8E6F0AFF
:101AE000D6403B6A0F5E1741D72F31720EBAE8D14C
:101AF00094596E9A0A906FDA96413D920F5C17A93D
:101B0000173331720EBADDD1945996C28A91748A14
:101B100098413BDA8F581719983631720EBADCD1DA
:101B20009459B90ACB907B72D9413522505A0000A2
:101B30000000000000000000000000005000500005
:101B400050005000500050005000070705050505E3
:101B5000050505050505050504040404C0C4011BAD
:101B600005071739993F31720EBAB7D19459A1CAF6
:101B700089887FD21738FE190E6017C1D83B3172A1
:101B80000EBAB9D19459A0C2C98767E2173E0512AF
:101B90000E5F1741D83731720EBABED194599EF2FA
:101BA000898651FA17450D1ACE5D17D15734317217
:101BB0000EBAC5D194599A220A86440A9849143A11
:101BC0008E5C1761D73031720EBACBD19459962200
:101BD000CA86470AD8481B5A8E5B1709172E3172DE
:101BE0000EBAD1D1945990024A8853F21745218AEE
:101BF000CE5A17C1D62B31720EBAD8D1945986025B
:101C0000CA895EBA174227C20E5A000000000000BF
:101C10000000000000000000500050005000500084
:101C2000500050005000070705050505050505058E
:101C30000505050504040404C3C3011B050717A912
:101C40001A4B31720EBAF4D19459C2D24B7FA24AC8
:101C5000983FFDA18F6417C1DA4B31720EBAEED1F5
:101C60009459BC1ACC7DA33AD841F7718F6317B948
:101C70009A4B31720EBAE6D19459B62A8C7DA41AC9
:101C8000D841F2390F6317999A4A31720EBADBD1F3
:101C90009459AFD28B7FA8F2173EF0018F6217598B
:101CA0009A4831720EBACED19459AA3A8B82AAD2EE
:101CB0001739F0B90E6217091A4631720EBAC2D13D
:101CC0009459A69ACA85A4C29735F3718E6117A953
:101CD000194331720EBABAD19459A3120A8895C227
:101CE0001735F8410E610000000000000000000000
:101CF0000000000050005000500050005000500004
:101D00005000070705050505050505050505050539
:101D100004040404C2C2011B05071701D83531723F
:101D20000EBAE8D19459CCF24A8F7E4AD941316239
:101D3000D05E1779983931720EBAF5D19459D20222
:101D40004B8C82DA5841287AD06317F9983D31726A
:101D50000EBA01D29459D0120B89873A58401F7A93
:101D600090681769194131720EBA09D29459CC2280
:101D70004B868EC2173F186A506B17D9994431723F
:101D80000EBA08D29459CB324B8494C2173E1142FA
:101D9000D06A17315A4731720EBA02D29459CA52D8
:101DA000CB829A0A983D0B12906817799A49317242
:101DB0000EBAFBD19459C78A0B819F3A183E04DAB8
:101DC0004F6600000000000000000000000000005E
:101DD00050005000500050005000500050000707C5
:101DE00005050505050505050505050504040404A7
:101DF000C1C1011B05071791562A31720EBADED1F7
:101E000094597B1A8A8B685A57402EF20E5A1779CA
:101E1000962931720EBAE4D194596F320A8D6EE26E
:101E2000963F34220F5B1781D62931720EBAE7D163
:101E300094596C528A8E72CA963F385A0F5B17A11A
:101E4000D62A31720EBAE5D19459797A4A90765AE7
:101E500017403C928F5917E1D62C31720EBAE0D15F
:101E600094598FA28A91783AD8403DD20F581731B1
:101E7000572F31720EBADDD19459A7C20A9279FA5E
:101E800058413C0A50581791573231720EBADFD17F
:101E90009459BDE24A917B5AD941373A905A000091
:101EA0000000000000000000000000005000500092
:101EB0005000500050005000500007070505050570
:101EC000050505050505050504040404C0C4011540
:101ED000050717A9183B31720EBAB9D1945997FA70
:101EE000898873CA973B0422CE5E17315837317206
:101EF0000EBABFD19459926ACA854BCA17490D12BE
:101F00008E5D17B9973331720EBAC4D1945992AA23
:101F10008A8438E2974F1222CE5C175157303172C3
:101F20000EBAC8D19459936ACA853EFA574C1742E3
:101F30008E5C17F9962D31720EBACCD1945991421C
:101F40000A87480258481C628E5B17B9962B31727B
:101F50000EBAD2D194598B2A8A8853EAD744229256
:101F6000CE5A1789162A31720EBAD8D19459812ABD
:101F7000CA895EBA174227C20E5A0000000000004C
:101F80000000000000000000500050005000500011
:101F9000500050005000070705050505050505051B
:101FA0000505050504040404BFBF0115050717A1B5
:101FB000D83A31720EBAF5D19459A9B28A7F867295
:101FC000983CFEA94F5E17A1D83A31720EBAEFD1F4
:101FD0009459A7CA0A7E8352D83DF879CF5E17A1DB
:101FE000D83A31720EBAEAD19459A5E2CA7C802A55
:101FF000583FF3514F5F17A1D83A31720EBAE6D16C
:102000009459A2FACA7B7DFA1741EF310F6017A1EC
:10201000D83A31720EBADFD194599FC28A7D84CAF0
:10202000573DEC11CF6017A1D83A31720EBAD4D116
:1020300094599D3A0A8295AA1735EAF94E6117A17B
:10204000D83A31720EBACFD194599C024A849C9AE4
:102050005731E9E98E610000000000000000000037
:102060000000000050005000500050005000500090
:1020700050000707050505050505050505050505C6
:1020800004040404C2C2011505071791583A3172BD
:102090000EBAEFD19459C84A0B8D830A1942296AA6
:1020A00010611709193E31720EBA07D29459C472E1
:1020B0008B8889DAD7411F8A90691781D94131729B
:1020C0000EBA10D29459BF6A4B868C42D7401982FF
:1020D000506D17E9194531720EBA0CD29459C45299
:1020E0004B858F7A173F1562906C1741DA47317232
:1020F0000EBA07D29459C65A0B8494C2173E103AAE
:10210000D06A1781DA4931720EBA01D29459C57A70
:102110008B829A0A983D0A0A906817B15A4B31721D
:102120000EBAFBD19459C2B20B819F3A183E04DA21
:102130004F660000000000000000000000000000EA
:102140005000500050005000500050005000070751
:102150000505050505050505050505050404040433
:10216000BDBD0115050717A1D83A31720EBA01D2CB
:102170009459A9B28A82866A583C0A0A505E17A10D
:10218000D83A31720EBA07D29459A6C20A84844250
:10219000583D103A105F17A1D83A31720EBA0CD2DE
:1021A0009459A3D24A858212983E1562D05F17A136
:1021B000D83A31720EBA10D29459A0EA4A867FDA20
:1021C00017401982906017A1D83A31720EBA09D21D
:1021D0009459A7020B887C5298411D9AD05E17A192
:1021E000D83A31720EBAF7D19459B812CB8A7A5ACA
:1021F000994220AA905A17A1D83A31720EBAEED15C
:102200009459BF1A0B8C79D2194322B2D0580000CE
:10221000000000000000000000000000500050001E
:1022200050005000500050005000070705050505FC
:102230000505050505050505040404040000011550
:10224000050717A1D83A31720EBAD4D194599D3AE4
:102250000A8295AA1735EAF94E6117A1D83A317268
:102260000EBADFD194599FC28A7D84CA573DEC11C2
:10227000CF6017A1D83A31720EBAE6D19459A2FABA
:10228000CA7B7DFA1741EF310F6017A1D83A31723E
:102290000EBAEAD19459A5E2CA7C802A583FF3517C
:1022A0004F5F17A1D83A31720EBAEFD19459A7CA2D
:1022B0000A7E8352D83DF879CF5E17A1D83A3172A1
:1022C0000EBAF5D19459A9B28A7F8672983CFEA9BC
:1022D0004F5E17A1D83A31720EBAFBD19459AAAA0F
:1022E0000A81877A183C04DA0F5E000000000000C3
:1022F000000000000000000050005000500050009E
:1023000050005000500007070505050505050505A7
:102310000505050504040404BBBB0115050717C129
:10232000DA4B31720EBAD2D19459B74A8C8897EAF7
:10233000D7442292CE6517B15A4B31720EBACCD126
:102340009459B4A20C87940258481C624E641791A9
:102350005A4A31720EBAC8D19459B0F2CC858FFA6C
:10236000574C1742CE6317515A4831720EBAC4D136
:102370009459AF228D8487E2974F12220E6417F989
:10238000994531720EBABFD19459AC8ACC858FCAA7
:1023900017490D120E641791594231720EBAB9D114
:1023A0009459A74A8B889DCA973B0422CE62172175
:1023B000D93E31720EBABCD194599E32CA8896C2A7
:1023C0005734FB510E6100000000000000000000C7
:1023D000000000005000500050005000500050001D
:1023E0005000070705050505050505050505050553
:1023F0000404040400000115050717A1D83A31723E
:102400000EBAF7D19459B812CB8A7A5A994220AAB7
:10241000905A17A1D83A31720EBA09D29459A7022C
:102420000B887C5298411D9AD05E17A1D83A317220
:102430000EBA10D29459A0EA4A867FDA1740198260
:10244000906017A1D83A31720EBA0CD29459A3D227
:102450004A858212983E1562D05F17A1D83A317230
:102460000EBA07D29459A6C20A848442583D103A43
:10247000105F17A1D83A31720EBA01D29459A9B29D
:102480008A82866A583C0A0A505E17A1D83A31728D
:102490000EBAFBD19459AAAA0A81877A183C04DAA9
:1024A0000F5E0000000000000000000000000000BF
:1024B00050005000500050005000500050000707DE
:1024C00005050505050505050505050504040404C0
:1024D000B9B9011505071779962931720EBA01D2DB
:1024E000945980128A826D0A983D0A0A50571789BA
:1024F000162A31720EBA07D2945977420A8471C2F1
:10250000173E103A105717A9162B31720EBA0CD27B
:102510009459706A4A85727A173F1562905717E985
:10252000162D31720EBA10D294596D824A866F42BE
:10253000D7401982D0581741D72F31720EBA07D21F
:1025400094597C9A8A886EDAD7411F8A905717A9C6
:10255000173331720EBAEFD194599ECA0A8D730A9D
:102560001942296A90561719983631720EBADCD181
:102570009459B90ACB907B72D9413522505A000048
:1025800000000000000000000000000050005000AB
:102590005000500050005000500007070505050589
:1025A000050505050505050504040404B4B4011B6F
:1025B00005071739993F31720EBAC2D19459A19AC1
:1025C000C98584C29735F3714E6017C1D83B31720B
:1025D0000EBACED194599F6A898270D21739F0B958
:1025E0004E5F1741D83731720EBADBD194599D7ABC
:1025F000897F5DF2173EF0010F5E17D157343172BB
:102600000EBAE6D194599B9A897D521AD841F23973
:102610004F5C1761D73031720EBAEED1945999A23E
:10262000C97D543AD841F771CF5A1709172E317224
:102630000EBAF4D1945995AA497F5D4A983FFDA1FD
:102640004F5917C1D62B31720EBAFBD194598EC295
:102650000981663A183E04DA0F58000000000000B5
:10266000000000000000000050005000500050002A
:102670005000500050000707050505050505050534
:102680000505050504040404B7B7011B050717A9D0
:102690001A4B31720EBAD1D19459BC224C8897F2A0
:1026A0001745218ACE6517C1DA4B31720EBACBD1EC
:1026B0009459B982CC86930AD8481B5A4E6417B9EC
:1026C0009A4B31720EBAC5D19459B59A0C86930AB9
:1026D0009849143A4E6317999A4A31720EBABED18C
:1026E0009459B0328C8699FA17450D1A4E621759D3
:1026F0009A4831720EBAB9D19459AB82CB879FE216
:10270000173E0512CE6117091A4631720EBAB7D1BB
:102710009459A7C28A889ED21738FE198E6117A9CC
:10272000194331720EBABAD19459A3120A8895C2CC
:102730001735F8410E6100000000000000000000A5
:1027400000000000500050005000500050005000A9
:1027500050000707050505050505050505050505DF
:1027600004040404B6BA011B05071701D8353172F9
:102770000EBADDD19459C6F20A927FFA58413C0A4A
:1027800010601779983931720EBAE0D19459C7FAAE
:102790008A91833AD8403DD20F6617F9983D31723D
:1027A0000EBAE5D19459C10A4B90885A17403C9211
:1027B0008F6B1769194131720EBAE7D19459BB2A50
:1027C0008B8E8DCA963F385ACF6E17D99944317285
:1027D0000EBAE4D19459BB4A0B8D91E2963F342254
:1027E0000F6E17315A4731720EBADED19459BF7A43
:1027F0008B8B945A57402EF20E6B17799A4931728F
:102800000EBAD8D19459BFCACB8997BA174227C2FA
:102810004E68000000000000000000000000000002
:10282000500050005000500050005000500007076A
:10283000050505050505050505050505040404044C
:10284000B5B5011B05071791562A31720EBA02D28F
:10285000945985EAC9826D0A983D0B125057177931
:10286000962931720EBA08D294597C1A4A8471C2E0
:10287000173E114210571781D62931720EBA09D26C
:1028800094597A4A4A8673C2173F186AD05617A1DC
:10289000D62A31720EBA01D2945985820A89753AC4
:1028A00058401F7AD05517E1D62C31720EBAF5D1A7
:1028B000945998AA4A8C77DA5841287A505517319A
:1028C000572F31720EBAE8D19459ACCA4A8F794A5F
:1028D000D9413162D0561791573231720EBADFD1D9
:1028E0009459BDE24A917B5AD941373A905A000037
:1028F0000000000000000000000000005000500038
:102900005000500050005000500007070505050515
:10291000050505050505050504040404B4B4011501
:10292000050717A9183B31720EBACBD1945996BA44
:1029300009847BBA9737F2B10E5F1731583731727D
:102940000EBADDD1945991DA097E59C21741EE01D0
:102950008F5D17B9973331720EBAE6D1945992024E
:10296000CA7B4AE2D745EF31CF5C175157303172FD
:102970000EBAEAD1945995DAC97C4D1A1844F3512C
:102980000F5C17F9962D31720EBAEFD1945994CA93
:10299000097E543AD841F879CF5A17B9962B31723B
:1029A0000EBAF5D1945990D2897F5D4A983FFEA91D
:1029B0004F591789162A31720EBAFBD1945989EAF8
:1029C0000981663A183E04DA0F5800000000000042
:1029D00000000000000000005000500050005000B7
:1029E00050005000500007070505050505050505C1
:1029F0000505050504040404B3B30115050717A173
:102A0000D83A31720EBAF5D19459A9B28A7F86723A
:102A1000983CFEA94F5E17A1D83A31720EBAEFD199
:102A20009459A7CA0A7E8352D83DF879CF5E17A180
:102A3000D83A31720EBAEAD19459A5E2CA7C802AFA
:102A4000583FF3514F5F17A1D83A31720EBAE6D111
:102A50009459A2FACA7B7DFA1741EF310F6017A192
:102A6000D83A31720EBADFD194599FC28A7D84CA96
:102A7000573DEC11CF6017A1D83A31720EBAD4D1BC
:102A800094599D3A0A8295AA1735EAF94E6117A121
:102A9000D83A31720EBACFD194599C024A849C9A8A
:102AA0005731E9E98E6100000000000000000000DD
:102AB0000000000050005000500050005000500036
:102AC000500007070505050505050505050505056C
:102AD00004040404B6BA011505071791583A317277
:102AE0000EBADDD19459C0428B91848A98413BDA69
:102AF0000F631709193E31720EBAE8D19459B26AC0
:102B00000B9089DA96413D920F6D1781D941317250
:102B10000EBAEDD19459AA6ACB8E8C0AD6403B6A84
:102B2000CF7117E9194531720EBAE8D19459B262E2
:102B3000CB8D8D72164037424F701741DA47317294
:102B40000EBAE3D19459B772CB8C91F2D63F331AB7
:102B5000CF6D1781DA4931720EBADDD19459BAA21C
:102B60004B8B946297402DEA0E6B17B15A4B317222
:102B70000EBAD8D19459BAF2CB8997BA174227C264
:102B80004E6800000000000000000000000000008F
:102B900050005000500050005000500050000707F7
:102BA00005050505050505050505050504040404D9
:102BB000B1B10115050717A1D83A31720EBA01D289
:102BC0009459A9B28A82866A583C0A0A505E17A1B3
:102BD000D83A31720EBA07D29459A6C20A848442F6
:102BE000583D103A105F17A1D83A31720EBA0CD284
:102BF0009459A3D24A858212983E1562D05F17A1DC
:102C0000D83A31720EBA10D29459A0EA4A867FDAC5
:102C100017401982906017A1D83A31720EBA09D2C2
:102C20009459A7020B887C5298411D9AD05E17A137
:102C3000D83A31720EBAF7D19459B812CB8A7A5A6F
:102C4000994220AA905A17A1D83A31720EBAEED101
:102C50009459BF1A0B8C79D2194322B2D058000074
:102C600000000000000000000000000050005000C4
:102C700050005000500050005000070705050505A2
:102C800005050505050505050404040400000115F6
:102C9000050717A1D83A31720EBAD4D194599D3A8A
:102CA0000A8295AA1735EAF94E6117A1D83A31720E
:102CB0000EBADFD194599FC28A7D84CA573DEC1168
:102CC000CF6017A1D83A31720EBAE6D19459A2FA60
:102CD000CA7B7DFA1741EF310F6017A1D83A3172E4
:102CE0000EBAEAD19459A5E2CA7C802A583FF35122
:102CF0004F5F17A1D83A31720EBAEFD19459A7CAD3
:102D00000A7E8352D83DF879CF5E17A1D83A317246
:102D10000EBAF5D19459A9B28A7F8672983CFEA961
:102D20004F5E17A1D83A31720EBAFBD19459AAAAB4
:102D30000A81877A183C04DA0F5E00000000000068
:102D40000000000000000000500050005000500043
:102D5000500050005000070705050505050505054D
:102D60000505050504040404AFAF0115050717A107
:102D7000D83A31720EBAF5D19459A9B28A7F8672C7
:102D8000983CFEA94F5E17A1D83A31720EBAEFD126
:102D90009459A7CA0A7E8352D83DF879CF5E17A10D
:102DA000D83A31720EBAEAD19459A5E2CA7C802A87
:102DB000583FF3514F5F17A1D83A31720EBAE6D19E
:102DC0009459A2FACA7B7DFA1741EF310F6017A11F
:102DD000D83A31720EBADEF154589FCACA7D84CAFD
:102DE000973DED09CF6017A1D83A31720EBACF499D
:102DF00095559F624A8396BAD735EFC98E6117A160
:102E0000D83A31720EBAC4C1D551A0520A87A0BABD
:102E1000D732F4918E610000000000000000000035
:102E200000000000500050005000500050005000C2
:102E300050000707050505050505050505050505F8
:102E40000404040400000115050717A1D83A3172E3
:102E50000EBAF7D19459B812CB8A7A5A994220AA5D
:102E6000905A17A1D83A31720EBA09D29459A702D2
:102E70000B887C5298411D9AD05E17A1D83A3172C6
:102E80000EBA10D29459A0EA4A867FDA1740198206
:102E9000906017A1D83A31720EBA0CD29459A3D2CD
:102EA0004A858212983E1562D05F17A1D83A3172D6
:102EB0000EBA07D29459A6C20A848442583D103AE9
:102EC000105F17A1D83A31720EBA01D29459A9B243
:102ED0008A82866A583C0A0A505E17A1D83A317233
:102EE0000EBAFBD19459AAAA0A81877A183C04DA4F
:102EF0000F5E000000000000000000000000000065
:102F00005000500050005000500050005000070783
:102F10000505050505050505050505050404040465
:102F2000ADAD0115050717A1D83A31720EBAEDB94A
:102F3000164A9AF28A878A22583D1E6A0F5D17A1A7
:102F4000D83A31720EBAF2B9164A95EACA8888EAB6
:102F5000973D23928F5D17A1D83A31720EBAF7B917
:102F6000164A8FEA0A8A85A2573E28BA4F5E17A1F1
:102F7000D83A31720EBAFBB9164A89EACA8A815226
:102F8000973F2BDA4F5F17A1D83A31720EBAF699F4
:102F9000164B91F28A8C7ED297402E02505D17A17B
:102FA000D83A31720EBAE741D64DA7FA8A8E7B0223
:102FB00099412F2A505917A1D83A31720EBAE3C15C
:102FC000D551B5FACA8E79A219422D5AD0570000B0
:102FD0000000000000000000000000005000500051
:102FE000500050005000500050000707050505052F
:102FF000050505050505050504040404A8AC011B29
:10300000050717A1D83A31720EBAC211564FA18ADC
:103010008A869FCA1735F6794E6117A1D83A317260
:103020000EBAC751564DA2DA4A8599EA1739FB8183
:103030008E6017A1D83A31720EBACE89964BA32A68
:10304000CB839112983D019ACE5F17A1D83A317285
:103050000EBAD5A9964AA3628B828A32D84007BAA3
:10306000CE5E17A1D83A31720EBADBB9164AA35216
:103070000B83894AD8400CDACE5D17A1D83A317259
:103080000EBAE1B9164AA12A8B848B52D83E120A95
:103090004F5D17A1D83A31720EBAE7B9164A9E0AA7
:1030A0000B868B42D83D183A0F5D000000000000EF
:1030B00000000000000000005000500050005000D0
:1030C00050005000500007070505050505050505DA
:1030D0000505050504040404ABAB011B050717A196
:1030E000D83A31720EBAF5D19459A9B24A7F867294
:1030F000983CFDA94F5E17A1D83A31720EBAEFD1B4
:103100009459A7CACA7D8352D83DF779CF5E17A1DB
:10311000D83A31720EBAE7D91459A5C28A7D842AE9
:10312000983DF2494F5F17A1D83A31720EBADDF9D6
:103130001458A29A4A7F8BFA973AF0114F6017A160
:10314000D83A31720EBAD2315556A06A4A8294D218
:103150009736EFD90E6117A1D83A31720EBAC979F4
:1031600015549F4A0A859CBAD733F0A98E6117A1DE
:10317000D83A31720EBAC3C1D551A05A8A86A0BAC4
:103180005733F289CE61000000000000000000000B
:10319000000000005000500050005000500050004F
:1031A0005000070705050505050505050505050585
:1031B00004040404AAAA011B050717A1D83A317216
:1031C0000EBAEB791554B6028B8D798219422A7AA0
:1031D000D05817A1D83A31720EBAF6315556B2FA14
:1031E0004A8B7B2A59412482D05A17A1D83A31728E
:1031F0000EBA02FA1458ACEA8A887EAA18401D7AE0
:10320000105D17A1D83A31720EBA09DA1459A7D253
:103210000A86824A983E166AD05E17A1D83A317261
:103220000EBA08D29459A6C20A848442583D10426C
:10323000105F17A1D83A31720EBA02D29459A9B2CE
:103240008A82866A583C0A12505E17A1D83A3172B7
:103250000EBAFBD19459AAAA0A81877A183C04DADB
:103260000F5E0000000000000000000000000000F1
:103270005000500050005000500050005000070710
:1032800005050505050505050505050504040404F2
:10329000A9A9011B050717A1D83A31720EBAEDB9D9
:1032A000164A9AF28A878A22583D1E6A0F5D17A134
:1032B000D83A31720EBAF3B9164A95E20A8988E211
:1032C000973D249A8F5D17A1D83A31720EBAF5A9AD
:1032D000964A93E28A8A84E2573E28C24F5D17A13C
:1032E000D83A31720EBAF089964B9AE24A8C804AEB
:1032F000583F2CF28F5B17A1D83A31720EBAEA51BF
:10330000564DA4EA0A8E7DDA98402F22905917A1D3
:10331000D83A31720EBAE511564FAEF24A8F7A5A48
:103320009941304A105817A1D83A31720EBAE5C106
:10333000D551B4FA0A8F789219422E6AD0570000FC
:1033400000000000000000000000000050005000DD
:1033500050005000500050005000070705050505BB
:10336000050505050505050504040404A8AC0115BB
:10337000050717A1D83A31720EBAC541D64DA0C281
:103380000A869ACAD737FA810E6117A1D83A3172E4
:103390000EBACD99164BA1724B828AEA5741FF892A
:1033A0004E6017A1D83A31720EBAD4B9164AA2B2F9
:1033B0000B81820A584504A28E5F17A1D83A317258
:1033C0000EBAD7B9164AA2820B828632D84208BA00
:1033D0008E5E17A1D83A31720EBADCB9164AA252E3
:1033E0004B83894A98400DE2CE5D17A1D83A3172DD
:1033F0000EBAE1B9164AA12A8B848B52D83E120A22
:103400004F5D17A1D83A31720EBAE7B9164A9E0A33
:103410000B868B42D83D183A0F5D0000000000007B
:10342000000000000000000050005000500050005C
:103430005000500050000707050505050505050566
:103440000505050504040404A7A70115050717A130
:10345000D83A31720EBAF5D19459A9B28A7F8672E0
:10346000983CFEA94F5E17A1D83A31720EBAEFD13F
:103470009459A7CA0A7E8352D83DF879CF5E17A126
:10348000D83A31720EBAEAD19459A5E2CA7C802AA0
:10349000583FF3514F5F17A1D83A31720EBAE6D1B7
:1034A0009459A2FACA7B7DFA1741EF310F6017A138
:1034B000D83A31720EBADFD194599FC28A7D84CA3C
:1034C000573DEC11CF6017A1D83A31720EBAD4D162
:1034D00094599D3A0A8295AA1735EAF94E6117A1C7
:1034E000D83A31720EBACFD194599C024A849C9A30
:1034F0005731E9E98E610000000000000000000083
:1035000000000000500050005000500050005000DB
:103510005000070705050505050505050505050511
:1035200004040404AAAA0115050717A1D83A3172A8
:103530000EBAF2499555B3020B8C79421942268294
:10354000505A17A1D83A31720EBA08F25458A6024E
:103550004B887C4A98411E92D05E17A1D83A3172AE
:103560000EBA10D29459A0EA4A867FDA174019821F
:10357000906017A1D83A31720EBA0CD29459A3D2E6
:103580004A858212983E1562D05F17A1D83A3172EF
:103590000EBA07D29459A6C20A848442583D103A02
:1035A000105F17A1D83A31720EBA01D29459A9B25C
:1035B0008A82866A583C0A0A505E17A1D83A31724C
:1035C0000EBAFBD19459AAAA0A81877A183C04DA68
:1035D0000F5E00000000000000000000000000007E
:1035E000500050005000500050005000500007079D
:1035F000050505050505050505050505040404047F
:10360000A5A50115050717A1D83A31720EBA01D246
:103610009459A9B28A82866A583C0A0A505E17A158
:10362000D83A31720EBA07D29459A6C20A8484429B
:10363000583D103A105F17A1D83A31720EBA0CD229
:103640009459A3D24A858212983E1562D05F17A181
:10365000D83A31720EBA10D29459A0EA4A867FDA6B
:1036600017401982906017A1D83A31720EBA09D268
:103670009459A7020B887C5298411D9AD05E17A1DD
:10368000D83A31720EBAF7D19459B812CB8A7A5A15
:10369000994220AA905A17A1D83A31720EBAEED1A7
:1036A0009459BF1A0B8C79D2194322B2D05800001A
:1036B000000000000000000000000000500050006A
:1036C0005000500050005000500007070505050548
:1036D000050505050505050504040404000001159C
:1036E000050717A1D83A31720EBAD4D194599D3A30
:1036F0000A8295AA1735EAF94E6117A1D83A3172B4
:103700000EBADFD194599FC28A7D84CA573DEC110D
:10371000CF6017A1D83A31720EBAE6D19459A2FA05
:10372000CA7B7DFA1741EF310F6017A1D83A317289
:103730000EBAEAD19459A5E2CA7C802A583FF351C7
:103740004F5F17A1D83A31720EBAEFD19459A7CA78
:103750000A7E8352D83DF879CF5E17A1D83A3172EC
:103760000EBAF5D19459A9B28A7F8672983CFEA907
:103770004F5E17A1D83A31720EBAFBD19459AAAA5A
:103780000A81877A183C04DA0F5E0000000000000E
:1037900000000000000000005000500050005000E9
:1037A00050005000500007070505050505050505F3
:1037B0000505050504040404A3A30115050717A1C5
:1037C000D83A31720EBAE1B9164AA12A8B848B52CB
:1037D000D83E120A4F5D17A1D83A31720EBADCB941
:1037E000164AA2524B83894A98400DE2CE5D17A13A
:1037F000D83A31720EBAD7B9164AA2820B828632F3
:10380000D84208BA8E5E17A1D83A31720EBAD4B92E
:10381000164AA2B20B81820A584504A28E5F17A1F4
:10382000D83A31720EBACD99164BA1724B828AEA00
:103830005741FF894E6017A1D83A31720EBAC5417F
:10384000D64DA0C20A869ACAD737FA810E6117A14F
:10385000D83A31720EBAC4C1D551A0520A87A0BA63
:10386000D732F4918E6100000000000000000000DB
:103870000000000050005000500050005000500068
:10388000500007070505050505050505050505059E
:103890000404040400000115050717A1D83A317289
:1038A0000EBAF7D19459B812CB8A7A5A994220AA03
:1038B000905A17A1D83A31720EBA09D29459A70278
:1038C0000B887C5298411D9AD05E17A1D83A31726C
:1038D0000EBA10D29459A0EA4A867FDA17401982AC
:1038E000906017A1D83A31720EBA0CD29459A3D273
:1038F0004A858212983E1562D05F17A1D83A31727C
:103900000EBA07D29459A6C20A848442583D103A8E
:10391000105F17A1D83A31720EBA01D29459A9B2E8
:103920008A82866A583C0A0A505E17A1D83A3172D8
:103930000EBAFBD19459AAAA0A81877A183C04DAF4
:103940000F5E00000000000000000000000000000A
:103950005000500050005000500050005000070729
:10396000050505050505050505050505040404040B
:10397000A1A10115050717A1D83A31720EBA01D2DB
:103980009459A9B28A82866A583C0A0A505E17A1E5
:10399000D83A31720EBA07D29459A6C20A84844228
:1039A000583D103A105F17A1D83A31720EBA0CD2B6
:1039B0009459A3D24A858212983E1562D05F17A10E
:1039C000D83A31720EBA10D29459A0EA4A867FDAF8
:1039D00017401982906017A1D83A31720EBA08F2D6
:1039E0005458A6024B887C4A98411E92D05E17A17B
:1039F000D83A31720EBAF2499555B3020B8C79421E
:103A000019422682505A17A1D83A31720EBAE3C130
:103A1000D551B5FACA8E79A219422D5AD057000055
:103A200000000000000000000000000050005000F6
:103A300050005000500050005000070705050505D4
:103A40000505050505050505040404049C9C011BEA
:103A5000050717A1D83A31720EBAC97915549F4A91
:103A60000A859CBAD733F0A98E6117A1D83A317272
:103A70000EBAD2315556A06A4A8294D29736EFD9FF
:103A80000E6117A1D83A31720EBADDF91458A29A14
:103A90004A7F8BFA973AF0114F6017A1D83A3172EA
:103AA0000EBAE7D91459A5C28A7D842A983DF249F5
:103AB0004F5F17A1D83A31720EBAEFD19459A7CA05
:103AC000CA7D8352D83DF779CF5E17A1D83A3172BB
:103AD0000EBAF5D19459A9B24A7F8672983CFDA9D5
:103AE0004F5E17A1D83A31720EBAFBD19459AAAAE7
:103AF0000A81877A183C04DA0F5E0000000000009B
:103B00000000000000000000500050005000500075
:103B1000500050005000070705050505050505057F
:103B200005050505040404049F9F011B050717A153
:103B3000D83A31720EBAE1B9164AA12A8B848B5257
:103B4000D83E120A4F5D17A1D83A31720EBADBB9CE
:103B5000164AA3520B83894AD8400CDACE5D17A1CE
:103B6000D83A31720EBAD5A9964AA3628B828A32AC
:103B7000D84007BACE5E17A1D83A31720EBACE89B4
:103B8000964BA32ACB839112983D019ACE5F17A141
:103B9000D83A31720EBAC751564DA2DA4A8599EA1F
:103BA0001739FB818E6017A1D83A31720EBAC21153
:103BB000564FA18A8A869FCA1735F6794E6117A19A
:103BC000D83A31720EBAC3C1D551A05A8A86A0BA6A
:103BD0005733F289CE6100000000000000000000B1
:103BE00000000000500050005000500050005000F5
:103BF000500007070505050505050505050505052B
:103C0000040404049EA2011B050717A1D83A3172CF
:103C10000EBAE511564FAEF24A8F7A5A9941304AA0
:103C2000105817A1D83A31720EBAEA51564DA4EA8B
:103C30000A8E7DDA98402F22905917A1D83A317216
:103C40000EBAF089964B9AE24A8C804A583F2CF281
:103C50008F5B17A1D83A31720EBAF5A9964A93E252
:103C60008A8A84E2573E28C24F5D17A1D83A317242
:103C70000EBAF3B9164A95E20A8988E2973D249A6A
:103C80008F5D17A1D83A31720EBAEDB9164A9AF281
:103C90008A878A22583D1E6A0F5D17A1D83A317271
:103CA0000EBAE7B9164A9E0A0B868B42D83D183ADF
:103CB0000F5D000000000000000000000000000098
:103CC00050005000500050005000500050000707B6
:103CD0000505050505050505050505050404040498
:103CE0009D9D011B050717A1D83A31720EBA02D269
:103CF0009459A9B28A82866A583C0A12505E17A16A
:103D0000D83A31720EBA08D29459A6C20A848442B3
:103D1000583D1042105F17A1D83A31720EBA09DA35
:103D20001459A7D20A86824A983E166AD05E17A115
:103D3000D83A31720EBA02FA1458ACEA8A887EAACE
:103D400018401D7A105D17A1D83A31720EBAF631BB
:103D50005556B2FA4A8B7B2A59412482D05A17A170
:103D6000D83A31720EBAEB791554B6028B8D79823E
:103D700019422A7AD05817A1D83A31720EBAE5C141
:103D8000D551B4FA0A8F789219422E6AD0570000A2
:103D90000000000000000000000000005000500083
:103DA0005000500050005000500007070505050561
:103DB0000505050505050505040404049C9C01157D
:103DC000050717A1D83A31720EBACF4995559F62AF
:103DD0004A8396BAD735EFC98E6117A1D83A3172A6
:103DE0000EBADEF154589FCACA7D84CA973DED09C8
:103DF000CF6017A1D83A31720EBAE6D19459A2FA1F
:103E0000CA7B7DFA1741EF310F6017A1D83A3172A2
:103E10000EBAEAD19459A5E2CA7C802A583FF351E0
:103E20004F5F17A1D83A31720EBAEFD19459A7CA91
:103E30000A7E8352D83DF879CF5E17A1D83A317205
:103E40000EBAF5D19459A9B28A7F8672983CFEA920
:103E50004F5E17A1D83A31720EBAFBD19459AAAA73
:103E60000A81877A183C04DA0F5E00000000000027
:103E70000000000000000000500050005000500002
:103E8000500050005000070705050505050505050C
:103E900005050505040404049B9B0115050717A1EE
:103EA000D83A31720EBAF5D19459A9B28A7F867286
:103EB000983CFEA94F5E17A1D83A31720EBAEFD1E5
:103EC0009459A7CA0A7E8352D83DF879CF5E17A1CC
:103ED000D83A31720EBAEAD19459A5E2CA7C802A46
:103EE000583FF3514F5F17A1D83A31720EBAE6D15D
:103EF0009459A2FACA7B7DFA1741EF310F6017A1DE
:103F0000D83A31720EBADFD194599FC28A7D84CAE1
:103F1000573DEC11CF6017A1D83A31720EBAD4D107
:103F200094599D3A0A8295AA1735EAF94E6117A16C
:103F3000D83A31720EBACFD194599C024A849C9AD5
:103F40005731E9E98E610000000000000000000028
:103F50000000000050005000500050005000500081
:103F600050000707050505050505050505050505B7
:103F7000040404049EA20115050717A1D83A317262
:103F80000EBAE741D64DA7FA8A8E7B0299412F2AB5
:103F9000505917A1D83A31720EBAF699164B91F2D0
:103FA0008A8C7ED297402E02505D17A1D83A31728A
:103FB0000EBAFBB9164A89EACA8A8152973F2BDAB0
:103FC0004F5F17A1D83A31720EBAF7B9164A8FEA85
:103FD0000A8A85A2573E28BA4F5E17A1D83A317295
:103FE0000EBAF2B9164A95EACA8888EA973D239232
:103FF0008F5D17A1D83A31720EBAEDB9164A9AF20E
:104000008A878A22583D1E6A0F5D17A1D83A3172FD
:104010000EBAE7B9164A9E0A0B868B42D83D183A6B
:104020000F5D000000000000000000000000000024
:104030005000500050005000500050005000070742
:104040000505050505050505050505050404040424
:1040500099990115050717A1D83A31720EBA01D204
:104060009459A9B28A82866A583C0A0A505E17A1FE
:10407000D83A31720EBA07D29459A6C20A84844241
:10408000583D103A105F17A1D83A31720EBA0CD2CF
:104090009459A3D24A858212983E1562D05F17A127
:1040A000D83A31720EBA10D29459A0EA4A867FDA11
:1040B00017401982906017A1D83A31720EBA09D20E
:1040C0009459A7020B887C5298411D9AD05E17A183
:1040D000D83A31720EBAF7D19459B812CB8A7A5ABB
:1040E000994220AA905A17A1D83A31720EBAEED14D
:1040F0009459BF1A0B8C79D2194322B2D0580000C0
:10410000000000000000000000000000500050000F
:1041100050005000500050005000070705050505ED
:104120000505050505050505040404040000011541
:10413000050717A1D83A31720EBAD4D194599D3AD5
:104140000A8295AA1735EAF94E6117A1D83A317259
:104150000EBADFD194599FC28A7D84CA573DEC11B3
:10416000CF6017A1D83A31720EBAE6D19459A2FAAB
:10417000CA7B7DFA1741EF310F6017A1D83A31722F
:104180000EBAEAD19459A5E2CA7C802A583FF3516D
:104190004F5F17A1D83A31720EBAEFD19459A7CA1E
:1041A0000A7E8352D83DF879CF5E17A1D83A317292
:1041B0000EBAF5D19459A9B28A7F8672983CFEA9AD
:1041C0004F5E17A1D83A31720EBAFBD19459AAAA00
:1041D0000A81877A183C04DA0F5E000000000000B4
:1041E000000000000000000050005000500050008F
:1041F0005000500050000707050505050505050599
:1042000005050505040404049797011505071779AA
:10421000962931720EBAF5D1945990D2897F5D4AB0
:10422000983FFEA94F591789162A31720EBAEFD15D
:10423000945994CA097E543AD841F879CF5A17A9AB
:10424000162B31720EBAEAD1945995DAC97C4D1AFF
:104250001844F3510F5C17E9162D31720EBAE6D1EE
:1042600094599202CA7B4AE2D745EF31CF5C17419D
:10427000D72F31720EBADDF1545891E2C97D5ABA86
:10428000D740ED01CF5D17A9173331720EBACD4972
:10429000955597C209837FB2D736EEC18E5F171945
:1042A000983631720EBAC4C1D551A0520A87A0BA4D
:1042B000D732F4918E610000000000000000000081
:1042C000000000005000500050005000500050000E
:1042D0005000070705050505050505050505050544
:1042E0000404040400000115050717A1D83A31722F
:1042F0000EBAF7D19459B812CB8A7A5A994220AAA9
:10430000905A17A1D83A31720EBA09D29459A7021D
:104310000B887C5298411D9AD05E17A1D83A317211
:104320000EBA10D29459A0EA4A867FDA1740198251
:10433000906017A1D83A31720EBA0CD29459A3D218
:104340004A858212983E1562D05F17A1D83A317221
:104350000EBA07D29459A6C20A848442583D103A34
:10436000105F17A1D83A31720EBA01D29459A9B28E
:104370008A82866A583C0A0A505E17A1D83A31727E
:104380000EBAFBD19459AAAA0A81877A183C04DA9A
:104390000F5E0000000000000000000000000000B0
:1043A00050005000500050005000500050000707CF
:1043B00005050505050505050505050504040404B1
:1043C00095950115050717C1DA4B31720EBAF4B98C
:1043D000164AB5B20B8A9DC2973E28A2CF6617B186
:1043E0005A4B31720EBAF8B9164AB27ACB8B976231
:1043F000573E2FC2CF6817915A4A31720EBAFCB994
:10440000164AAC620B8D9202D73E34E28F6A175186
:104410005A4831720EBA00BA164AA562CB8D8EAADE
:1044200016403702906B17F9994531720EBAFA9916
:10443000164BAC62CB8E8A621741382250671791B7
:10444000594231720EBAE941D64DB93ACB8F82E268
:104450009841343AD05E1721D93E31720EBAE3C189
:10446000D551B5FACA8E79A219422D5AD0570000FB
:10447000000000000000000000000000500050009C
:10448000500050005000500050000707050505057A
:104490000505050505050505040404049094011BA4
:1044A00005071701D83531720EBAC811564FA8DA70
:1044B0008A87AECA1735FAA9CE6117799839317251
:1044C0000EBAD051564DABA24B86B2EA573AFFC94D
:1044D000CE6117F9983D31720EBADA89964BAF4A20
:1044E000CC84AE0A984005FACE6117691941317241
:1044F0000EBAE3A9964AB3AA0C84A822D8440C2287
:104500000F6217D9994431720EBAE9B9164AB692B8
:10451000CC84A6329844134A4F6217315A473172FD
:104520000EBAECB9164AB9328C86A62AD8411A625C
:104530000F6317799A4931720EBAF0B9164ABBDA8D
:104540004B88A302D83F2182CF6400000000000006
:10455000000000000000000050005000500050001B
:104560005000500050000707050505050505050525
:1045700005050505040404049393011B0507179121
:10458000562A31720EBAF5D1945995A2897F5D4AA7
:10459000983FFEA94F591779962931720EBAF0D17A
:1045A000945999A2497E543A9841F981CF5A17817A
:1045B000D62931720EBAE9D914599C9A097E531A38
:1045C0009841F4514F5C17A1D62A31720EBADEF928
:1045D00014589E72C97F5FFA973DF2190F5E17E17A
:1045E000D62C31720EBAD3315556A06AC98274D214
:1045F0001738F1E18E5F1731572F31720EBACA7931
:104600001554A2A289858BC2D733F2B1CE6017911F
:10461000573231720EBAC6C1D551A5224A87A0BA07
:104620009732F5A18E61000000000000000000003C
:10463000000000005000500050005000500050009A
:1046400050000707050505050505050505050505D0
:10465000040404049292011B05071739993F317233
:104660000EBAE8791554ABC28A8C7782D94125629B
:10467000105517C1D83B31720EBAF331555698A276
:104680000A8A76FA58411F6A50541741D837317256
:104690000EBAFFF91458867A8A87754A18401A6A42
:1046A000505517D1573431720EBA07DA14597B4A74
:1046B0008A8574CA173F145A90561761D7303172E1
:1046C0000EBA06D294597C1ACA8371CA173E0F32A9
:1046D00010571709172E31720EBA01D2945985EA74
:1046E00089826D0A983D0A0A105717C1D62B31727C
:1046F0000EBAFBD194598EC20981663A183E04DA8B
:104700000F58000000000000000000000000000042
:10471000500050005000500050005000500007075B
:10472000050505050505050505050505040404043D
:104730009191011B050717A91A4B31720EBAF3B9F3
:10474000164ABA8A0B8A9DC2973E289ACF6617C12D
:10475000DA4B31720EBAF7B9164AB7528B8B976A99
:10476000573E2EBACF6817B99A4B31720EBAF7A9D5
:10477000964AB72A0B8D9162D73E33DA0F691799A3
:104780009A4A31720EBAF189964BBD0A4B8E89EA6C
:10479000973F34FA0F6617599A4831720EBAE851AA
:1047A000564DC3F24A8F82B29840341A50611709AD
:1047B0001A4631720EBAE211564FC3E24A8F7D5A41
:1047C0009941303A105C17A9194331720EBAE2C10F
:1047D000D551BBD24A8E79AA19422B52D05700002C
:1047E0000000000000000000000000005000500029
:1047F0005000500050005000500007070505050507
:104800000505050505050505040404049094011536
:1048100005071791583A31720EBACA41D64DA87A97
:104820008B86ADCAD738FCA14E631709193E317289
:104830000EBAD899164BADB24C83A5DAD74403DA39
:10484000CE631781D94131720EBAE0B9164AAE3A39
:104850000D829FFA974A08024F6317E91945317292
:104860000EBAE4B9164AAF0A0D83A322D8470C2228
:104870004F621741DA4731720EBAE8B9164AB2BA36
:104880008C84A632D84412424F621781DA493172C1
:104890000EBAECB9164AB45A4C86A62AD841196207
:1048A0000F6317B15A4B31720EBAF0B9164AB602FD
:1048B0004C88A302D83F2182CF6400000000000092
:1048C00000000000000000005000500050005000A8
:1048D00050005000500007070505050505050505B2
:1048E00005050505040404048F8F0115050717A1AC
:1048F000D83A31720EBAF5D19459A9B28A7F86722C
:10490000983CFEA94F5E17A1D83A31720EBAEFD18A
:104910009459A7CA0A7E8352D83DF879CF5E17A171
:10492000D83A31720EBAEAD19459A5E2CA7C802AEB
:10493000583FF3514F5F17A1D83A31720EBAE6D102
:104940009459A2FACA7B7DFA1741EF310F6017A183
:10495000D83A31720EBADFD194599FC28A7D84CA87
:10496000573DEC11CF6017A1D83A31720EBAD4D1AD
:1049700094599D3A0A8295AA1735EAF94E6117A112
:10498000D83A31720EBACFD194599C024A849C9A7B
:104990005731E9E98E6100000000000000000000CE
:1049A0000000000050005000500050005000500027
:1049B000500007070505050505050505050505055D
:1049C0000404040492920115050717A9183B3172DB
:1049D0000EBAF14995559CC28A8B71225942247AAC
:1049E00050551731583731720EBA08F254587C9A24
:1049F0004A886DE217421D92905717B9973331726A
:104A00000EBA10D294596D824A866F42D7401982ED
:104A1000D0581751573031720EBA0CD29459706A6F
:104A20004A85727A173F1562905717F9962D3172A1
:104A30000EBA07D2945977420A8471C2173E103ACF
:104A4000105717B9962B31720EBA01D294598012B1
:104A50008A826D0A983D0A0A50571789162A3172C0
:104A60000EBAFBD1945989EA0981663A183E04DAF4
:104A70000F580000000000000000000000000000CF
:104A800050005000500050005000500050000707E8
:104A900005050505050505050505050504040404CA
:104AA0008D8D0115050717A1D83A31720EBA01D2C2
:104AB0009459A9B28A82866A583C0A0A505E17A1A4
:104AC000D83A31720EBA07D29459A6C20A848442E7
:104AD000583D103A105F17A1D83A31720EBA0CD275
:104AE0009459A3D24A858212983E1562D05F17A1CD
:104AF000D83A31720EBA10D29459A0EA4A867FDAB7
:104B000017401982906017A1D83A31720EBA09D2B3
:104B10009459A7020B887C5298411D9AD05E17A128
:104B2000D83A31720EBAF7D19459B812CB8A7A5A60
:104B3000994220AA905A17A1D83A31720EBAEED1F2
:104B40009459BF1A0B8C79D2194322B2D058000065
:104B500000000000000000000000000050005000B5
:104B60005000500050005000500007070505050593
:104B700005050505050505050404040400000115E7
:104B8000050717A1D83A31720EBAD4D194599D3A7B
:104B90000A8295AA1735EAF94E6117A1D83A3172FF
:104BA0000EBADFD194599FC28A7D84CA573DEC1159
:104BB000CF6017A1D83A31720EBAE6D19459A2FA51
:104BC000CA7B7DFA1741EF310F6017A1D83A3172D5
:104BD0000EBAEAD19459A5E2CA7C802A583FF35113
:104BE0004F5F17A1D83A31720EBAEFD19459A7CAC4
:104BF0000A7E8352D83DF879CF5E17A1D83A317238
:104C00000EBAF5D19459A9B28A7F8672983CFEA952
:104C10004F5E17A1D83A31720EBAFBD19459AAAAA5
:104C20000A81877A183C04DA0F5E00000000000059
:104C30000000000000000000500050005000500034
:104C4000500050005000070705050505050505053E
:104C500005050505040404048B8B01150507177968
:104C6000962931720EBAD7B9164A8952CA82642A75
:104C7000D8410BBA8E581789162A31720EBAD0B99C
:104C8000164A906ACA815C32D84407820E5A17A924
:104C9000162B31720EBACBB9164A939ACA80552296
:104CA000D847035A4E5B17E9162D31720EBAC8B9B0
:104CB000164A93D2CA7F51FA974AFF414E5C174178
:104CC000D72F31720EBAC499164B939A4A8162DA81
:104CD000D744FB394E5D17A9173331720EBAC04164
:104CE000D64D98328A8584CAD738F8594E5F17193D
:104CF000983631720EBAC4C1D551A0520A87A0BAF3
:104D0000D732F4918E610000000000000000000026
:104D100000000000500050005000500050005000B3
:104D200050000707050505050505050505050505E9
:104D30000404040400000115050717A1D83A3172D4
:104D40000EBAF7D19459B812CB8A7A5A994220AA4E
:104D5000905A17A1D83A31720EBA09D29459A702C3
:104D60000B887C5298411D9AD05E17A1D83A3172B7
:104D70000EBA10D29459A0EA4A867FDA17401982F7
:104D8000906017A1D83A31720EBA0CD29459A3D2BE
:104D90004A858212983E1562D05F17A1D83A3172C7
:104DA0000EBA07D29459A6C20A848442583D103ADA
:104DB000105F17A1D83A31720EBA01D29459A9B234
:104DC0008A82866A583C0A0A505E17A1D83A317224
:104DD0000EBAFBD19459AAAA0A81877A183C04DA40
:104DE0000F5E000000000000000000000000000056
:104DF0005000500050005000500050005000070775
:104E00000505050505050505050505050404040456
:104E100089890115050717C1DA4B31720EBA01D223
:104E20009459C57A8B829A0A983D0A0A906817B1FC
:104E30005A4B31720EBA07D29459C65A0B8494C297
:104E4000173E103AD06A17915A4A31720EBA0CD2F4
:104E50009459C4524B858F7A173F1562906C175145
:104E60005A4831720EBA10D29459BF6A4B868C429E
:104E7000D7401982506D17F9994531720EBA08F270
:104E80005458C3728B8888E217421F925069179159
:104E9000594231720EBAF3499555C7428B8C812223
:104EA0005942278A10601721D93E31720EBAE3C1E8
:104EB000D551B5FACA8E79A219422D5AD0570000A1
:104EC0000000000000000000000000005000500042
:104ED0005000500050005000500007070505050520
:104EE0000505050505050505040404048484011B66
:104EF00005071701D83531720EBACD791554A7A21E
:104F0000CA85ABC2D733F3D10E62177998393172A3
:104F10000EBAD7315556AB3A0B83AED21738F201E1
:104F20004F6217F9983D31720EBAE1F91458B0CAC0
:104F30000B80AAFA973DF2298F62176919413172E5
:104F40000EBAE9D91459B6220C7EA51A9841F45923
:104F5000CF6217D9994431720EBAF0D19459BC1A64
:104F60004C7EA33A9841F9818F6317315A473172C9
:104F70000EBAF5D19459C2D28B7FA34A983FFEA9AD
:104F80008F6417799A4931720EBAFBD19459C78A46
:104F90000B819F3A183E04DA4F66000000000000C3
:104FA00000000000000000005000500050005000C1
:104FB00050005000500007070505050505050505CB
:104FC00005050505040404048787011B05071791DF
:104FD000562A31720EBAD7B9164A8E2A0A83642A23
:104FE000D8410CBA8E581779962931720EBAD1B9B8
:104FF000164A95420A825C329844088A0E5A1781F2
:10500000D62931720EBACBA9964A9A420A825B22FD
:10501000D84404628E5B17A1D62A31720EBAC689B3
:10502000964B9E128A83670A9840005A8E5D17E15C
:10503000D62C31720EBAC251564DA1E2C9857AEA18
:10504000573AFC594E5F1731572F31720EBAC211C1
:10505000564FA3E249878FCA1735F8798E601791AA
:10506000573231720EBAC6C1D551A5224A87A0BAAD
:105070009732F5A18E6100000000000000000000E2
:105080000000000050005000500050005000500040
:105090005000070705050505050505050505050576
:1050A00004040404868A011B05071739993F3172ED
:1050B0000EBAE111564FA4BACA8D785A99412A2ADC
:1050C000505417C1D83B31720EBAE651564D8BA2DF
:1050D000CA8B78B29840260250531741D8373172A4
:1050E0000EBAEC89964B76824A8978EA973F20D2AD
:1050F0004F5417D1573431720EBAEFA9964A6A62EB
:105100000A877762D73E1B9ACF551761D730317225
:105110000EBAECB9164A6D4A8A85766A573E16620F
:105120004F561709172E31720EBAE5B9164A793261
:10513000CA8473C2973E132A4F5617C1D62B3172B9
:105140000EBADEB9164A8422CA836C02D83F0FF227
:105150000E570000000000000000000000000000EA
:105160005000500050005000500050005000070701
:1051700005050505050505050505050504040404E3
:105180008585011B050717A91A4B31720EBA01D28A
:105190009459CB528B829A0A983D0A0A906817C19B
:1051A000DA4B31720EBA06D29459CB32CB8394CA01
:1051B000173E0F32D06A17B99A4B31720EBA07DA1E
:1051C0001459CC1A8B858ECA173F155A106B179934
:1051D0009A4A31720EBA00FA1458D10A4B88874A9B
:1051E00018401C6A106817599A4831720EBAF43187
:1051F0005556D2FA0A8B81FA58412372D0621709A8
:105200001A4631720EBAE9791554CBEA4A8D7C827E
:10521000D941296A105D17A9194331720EBAE2C14A
:10522000D551BBD24A8E79AA19422B52D0570000D1
:1052300000000000000000000000000050005000CE
:1052400050005000500050005000070705050505AC
:1052500005050505050505050404040484840115F8
:1052600005071791583A31720EBAD1499555A71AC8
:105270008B83AAB2D736F0D98E631709193E3172E3
:105280000EBADEF15458AC1ACC7DA1BAD740ED115C
:105290008F641781D94131720EBAE6D19459AF9219
:1052A000CC7B9CE2D745EF310F6417E91945317289
:1052B0000EBAEAD19459B27ACC7CA11A1844F351AF
:1052C0004F631741DA4731720EBAEFD19459B742A2
:1052D0000C7EA33AD841F8798F631781DA4931728D
:1052E0000EBAF5D19459BDFA8B7FA24A983FFEA918
:1052F0008F6417B15A4B31720EBAFBD19459C2B2B6
:105300000B819F3A183E04DA4F660000000000004F
:10531000000000000000000050005000500050004D
:105320005000500050000707050505050505050557
:10533000050505050404040483830115050717A169
:10534000D83A31720EBAF5D19459A9B28A7F8672D1
:10535000983CFEA94F5E17A1D83A31720EBAEFD130
:105360009459A7CA0A7E8352D83DF879CF5E17A117
:10537000D83A31720EBAEAD19459A5E2CA7C802A91
:10538000583FF3514F5F17A1D83A31720EBAE6D1A8
:105390009459A2FACA7B7DFA1741EF310F6017A129
:1053A000D83A31720EBADFD194599FC28A7D84CA2D
:1053B000573DEC11CF6017A1D83A31720EBAD4D153
:1053C00094599D3A0A8295AA1735EAF94E6117A1B8
:1053D000D83A31720EBACFD194599C024A849C9A21
:1053E0005731E9E98E610000000000000000000074
:1053F00000000000500050005000500050005000CD
:105400005000070705050505050505050505050502
:1054100004040404868A0115050717A9183B317294
:105420000EBAE541D64D90BA4A8D72E298412B1AD8
:1054300090541731583731720EBAF299164B69925F
:10544000CA897062174124E28F5617B997333172B7
:105450000EBAF7B9164A588ACA8772AA16401FBAF6
:105460000F581751573031720EBAF3B9164A5E828F
:10547000CA867602D73E1B9A0F5717F9962D3172BE
:105480000EBAEDB9164A686ACA857662573E176A3F
:105490004F5617B9962B31720EBAE6B9164A745A9E
:1054A000CA8473C2973E13324F561789162A317237
:1054B0000EBADEB9164A7F4ACA836C02D83F0FF291
:1054C0000E57000000000000000000000000000077
:1054D000500050005000500050005000500007078E
:1054E0000505050505050505050505050404040470
:1054F00081810115050717A1D83A31720EBA01D280
:105500009459A9B28A82866A583C0A0A505E17A149
:10551000D83A31720EBA07D29459A6C20A8484428C
:10552000583D103A105F17A1D83A31720EBA0CD21A
:105530009459A3D24A858212983E1562D05F17A172
:10554000D83A31720EBA10D29459A0EA4A867FDA5C
:1055500017401982906017A1D83A31720EBA09D259
:105560009459A7020B887C5298411D9AD05E17A1CE
:10557000D83A31720EBAF7D19459B812CB8A7A5A06
:10558000994220AA905A17A1D83A31720EBAEED198
:105590009459BF1A0B8C79D2194322B2D05800000B
:1055A000000000000000000000000000500050005B
:1055B0005000500050005000500007070505050539
:1055C0000505050505050505060606060000011585
:1055D000050717A1D83A31720EBAD4D194599D3A21
:1055E0000A8295AA1735EAF94E6117A1D83A3172A5
:1055F0000EBADFD194599FC28A7D84CA573DEC11FF
:10560000CF6017A1D83A31720EBAE6D19459A2FAF6
:10561000CA7B7DFA1741EF310F6017A1D83A31727A
:105620000EBAEAD19459A5E2CA7C802A583FF351B8
:105630004F5F17A1D83A31720EBAEFD19459A7CA69
:105640000A7E8352D83DF879CF5E17A1D83A3172DD
:105650000EBAF5D19459A9B28A7F8672983CFEA9F8
:105660004F5E17A1D83A31720EBAFBD19459AAAA4B
:105670000A81877A183C04DA0F5E000000000000FF
:1056800000000000000000005000500050005000DA
:1056900050005000500007070505050505050505E4
:1056A00005050505060606067F7F0115050717C1D6
:1056B000DA4B31720EBAF5D19459CC828B7FA24A63
:1056C000983FFEA98F6417B15A4B31720EBAEFD1D1
:1056D0009459C6CA0B7EA33AD841F8798F631791C3
:1056E0005A4A31720EBAEAD19459C102CC7CA11A3D
:1056F0001844F3514F6317515A4831720EBAE6D12C
:105700009459BE1ACC7B9CE2D745EF310F6417F950
:10571000994531720EBADEA9945ABA9A4B7DA1BA54
:105720009740EB114F641791594231720EBAD35121
:10573000545DB16ACA81A6A21736E9E90E63172142
:10574000D93E31720EBAD0D91361A75A4984979ABB
:105750005731E9F1CE6000000000000000000000B9
:105760000000000050005000500050005000500059
:10577000500007070505050505050505050505058F
:105780000606060600000115050717A1D83A317272
:105790000EBAF7D19459B812CB8A7A5A994220AAF4
:1057A000905A17A1D83A31720EBA09D29459A70269
:1057B0000B887C5298411D9AD05E17A1D83A31725D
:1057C0000EBA10D29459A0EA4A867FDA174019829D
:1057D000906017A1D83A31720EBA0CD29459A3D264
:1057E0004A858212983E1562D05F17A1D83A31726D
:1057F0000EBA07D29459A6C20A848442583D103A80
:10580000105F17A1D83A31720EBA01D29459A9B2D9
:105810008A82866A583C0A0A505E17A1D83A3172C9
:105820000EBAFBD19459AAAA0A81877A183C04DAE5
:105830000F5E0000000000000000000000000000FB
:10584000500050005000500050005000500007071A
:1058500005050505050505050505050506060606F4
:105860007D7D011505071779962931720EBA08E278
:10587000D26894A209856F0A983D1442505817893E
:10588000162A31720EBA0CE2D2688DE2C98675C250
:10589000173E1B62D05817A9162B31720EBA10E2B0
:1058A000D26888124A88777A173F2182D05917E93F
:1058B000162D31720EBA14E2D268853A0A89754201
:1058C000D74024A2105B1741D72F31720EBA0C02B9
:1058D000D367965A4A8A74EA174226B2105A17A911
:1058E000173331720EBAF9591365B78ACA8B773AF2
:1058F000D94224BAD0571719983631720EBAEED958
:105900001361D4C2CA8B7CD2194321B2105A000051
:1059100000000000000000000000000050005000E7
:1059200050005000500050005000070705050505C5
:10593000050505050505050506060606787C011B17
:1059400005071739993F31720EBAD6899363AAC2F7
:10595000C88382AA1733EB11CF5F17C1D83B3172CE
:105960000EBAE0499365A8AA08826CC29737EE493F
:105970004F5E1741D83731720EBAEC115367A8CA7F
:10598000088059F2573DF289CF5C17D157343172F4
:105990000EBAF6F15268A7FAC87E4E1A9841F7C1BE
:1059A0008F5B1761D73031720EBAFCE1D268A71253
:1059B000897F513AD841FEE14F5A1709172E3172AB
:1059C0000EBA00E2D268A52249815B4A983F0502DF
:1059D000505917C1D62B31720EBA04E2D268A04AD0
:1059E0004983663A183E0D229058000000000000DE
:1059F0000000000000000000500050005000500067
:105A00005000500050000707050505050505050570
:105A100005050505060606067B7B011B050717A97C
:105A20001A4B31720EBAF5D19459D15A8B7FA24AD2
:105A3000983FFEA98F6417C1DA4B31720EBAEFD1CD
:105A40009459CBA20B7EA33AD841F8798F6317B94A
:105A50009A4B31720EBAE8C1D459C5AACB7DA41AAB
:105A60009841F351CF6217999A4A31720EBADFA169
:105A7000D45ABE4A0B7FA9F2573DEE214F62175907
:105A80009A4831720EBAD669945CB7A24A81ABC209
:105A90009737EBF90E6217091A4631720EBAD02108
:105AA000D45EB1E28983A5AA1733EAE98E6117A90A
:105AB000194331720EBAD0D91361AC324984979A26
:105AC0005731E9F1CE600000000000000000000046
:105AD00000000000500050005000500050005000E6
